{
  "_format": "hh-sol-artifact-1",
  "contractName": "RobBot",
  "sourceName": "contracts/RobBot.sol",
  "abi": [
    {
      "inputs": [],
      "stateMutability": "nonpayable",
      "type": "constructor"
    },
    {
      "anonymous": false,
      "inputs": [
        {
          "indexed": true,
          "internalType": "address",
          "name": "owner",
          "type": "address"
        },
        {
          "indexed": true,
          "internalType": "address",
          "name": "approved",
          "type": "address"
        },
        {
          "indexed": true,
          "internalType": "uint256",
          "name": "tokenId",
          "type": "uint256"
        }
      ],
      "name": "Approval",
      "type": "event"
    },
    {
      "anonymous": false,
      "inputs": [
        {
          "indexed": true,
          "internalType": "address",
          "name": "owner",
          "type": "address"
        },
        {
          "indexed": true,
          "internalType": "address",
          "name": "operator",
          "type": "address"
        },
        {
          "indexed": false,
          "internalType": "bool",
          "name": "approved",
          "type": "bool"
        }
      ],
      "name": "ApprovalForAll",
      "type": "event"
    },
    {
      "anonymous": false,
      "inputs": [
        {
          "indexed": true,
          "internalType": "address",
          "name": "previousOwner",
          "type": "address"
        },
        {
          "indexed": true,
          "internalType": "address",
          "name": "newOwner",
          "type": "address"
        }
      ],
      "name": "OwnershipTransferred",
      "type": "event"
    },
    {
      "anonymous": false,
      "inputs": [
        {
          "indexed": true,
          "internalType": "address",
          "name": "from",
          "type": "address"
        },
        {
          "indexed": true,
          "internalType": "address",
          "name": "to",
          "type": "address"
        },
        {
          "indexed": true,
          "internalType": "uint256",
          "name": "tokenId",
          "type": "uint256"
        }
      ],
      "name": "Transfer",
      "type": "event"
    },
    {
      "inputs": [],
      "name": "MAX_ENTRIES",
      "outputs": [
        {
          "internalType": "uint256",
          "name": "",
          "type": "uint256"
        }
      ],
      "stateMutability": "view",
      "type": "function"
    },
    {
      "inputs": [],
      "name": "_live",
      "outputs": [
        {
          "internalType": "bool",
          "name": "",
          "type": "bool"
        }
      ],
      "stateMutability": "view",
      "type": "function"
    },
    {
      "inputs": [
        {
          "internalType": "address",
          "name": "to",
          "type": "address"
        },
        {
          "internalType": "uint256",
          "name": "tokenId",
          "type": "uint256"
        }
      ],
      "name": "approve",
      "outputs": [],
      "stateMutability": "nonpayable",
      "type": "function"
    },
    {
      "inputs": [
        {
          "internalType": "address",
          "name": "owner",
          "type": "address"
        }
      ],
      "name": "balanceOf",
      "outputs": [
        {
          "internalType": "uint256",
          "name": "",
          "type": "uint256"
        }
      ],
      "stateMutability": "view",
      "type": "function"
    },
    {
      "inputs": [
        {
          "internalType": "uint256",
          "name": "tokenId",
          "type": "uint256"
        }
      ],
      "name": "getApproved",
      "outputs": [
        {
          "internalType": "address",
          "name": "",
          "type": "address"
        }
      ],
      "stateMutability": "view",
      "type": "function"
    },
    {
      "inputs": [],
      "name": "getPrice",
      "outputs": [
        {
          "internalType": "uint256",
          "name": "",
          "type": "uint256"
        }
      ],
      "stateMutability": "view",
      "type": "function"
    },
    {
      "inputs": [
        {
          "internalType": "address",
          "name": "owner",
          "type": "address"
        },
        {
          "internalType": "address",
          "name": "operator",
          "type": "address"
        }
      ],
      "name": "isApprovedForAll",
      "outputs": [
        {
          "internalType": "bool",
          "name": "",
          "type": "bool"
        }
      ],
      "stateMutability": "view",
      "type": "function"
    },
    {
      "inputs": [
        {
          "internalType": "uint256",
          "name": "qty",
          "type": "uint256"
        }
      ],
      "name": "mintToken",
      "outputs": [],
      "stateMutability": "payable",
      "type": "function"
    },
    {
      "inputs": [],
      "name": "name",
      "outputs": [
        {
          "internalType": "string",
          "name": "",
          "type": "string"
        }
      ],
      "stateMutability": "view",
      "type": "function"
    },
    {
      "inputs": [],
      "name": "owner",
      "outputs": [
        {
          "internalType": "address",
          "name": "",
          "type": "address"
        }
      ],
      "stateMutability": "view",
      "type": "function"
    },
    {
      "inputs": [
        {
          "internalType": "uint256",
          "name": "tokenId",
          "type": "uint256"
        }
      ],
      "name": "ownerOf",
      "outputs": [
        {
          "internalType": "address",
          "name": "",
          "type": "address"
        }
      ],
      "stateMutability": "view",
      "type": "function"
    },
    {
      "inputs": [],
      "name": "renounceOwnership",
      "outputs": [],
      "stateMutability": "nonpayable",
      "type": "function"
    },
    {
      "inputs": [
        {
          "internalType": "address",
          "name": "from",
          "type": "address"
        },
        {
          "internalType": "address",
          "name": "to",
          "type": "address"
        },
        {
          "internalType": "uint256",
          "name": "tokenId",
          "type": "uint256"
        }
      ],
      "name": "safeTransferFrom",
      "outputs": [],
      "stateMutability": "nonpayable",
      "type": "function"
    },
    {
      "inputs": [
        {
          "internalType": "address",
          "name": "from",
          "type": "address"
        },
        {
          "internalType": "address",
          "name": "to",
          "type": "address"
        },
        {
          "internalType": "uint256",
          "name": "tokenId",
          "type": "uint256"
        },
        {
          "internalType": "bytes",
          "name": "_data",
          "type": "bytes"
        }
      ],
      "name": "safeTransferFrom",
      "outputs": [],
      "stateMutability": "nonpayable",
      "type": "function"
    },
    {
      "inputs": [
        {
          "internalType": "address",
          "name": "operator",
          "type": "address"
        },
        {
          "internalType": "bool",
          "name": "approved",
          "type": "bool"
        }
      ],
      "name": "setApprovalForAll",
      "outputs": [],
      "stateMutability": "nonpayable",
      "type": "function"
    },
    {
      "inputs": [
        {
          "internalType": "string",
          "name": "baseURI",
          "type": "string"
        }
      ],
      "name": "setBaseURI",
      "outputs": [],
      "stateMutability": "nonpayable",
      "type": "function"
    },
    {
      "inputs": [
        {
          "internalType": "uint256",
          "name": "_newPrice",
          "type": "uint256"
        }
      ],
      "name": "setPrice",
      "outputs": [],
      "stateMutability": "nonpayable",
      "type": "function"
    },
    {
      "inputs": [
        {
          "internalType": "bytes4",
          "name": "interfaceId",
          "type": "bytes4"
        }
      ],
      "name": "supportsInterface",
      "outputs": [
        {
          "internalType": "bool",
          "name": "",
          "type": "bool"
        }
      ],
      "stateMutability": "view",
      "type": "function"
    },
    {
      "inputs": [],
      "name": "symbol",
      "outputs": [
        {
          "internalType": "string",
          "name": "",
          "type": "string"
        }
      ],
      "stateMutability": "view",
      "type": "function"
    },
    {
      "inputs": [],
      "name": "toggleSale",
      "outputs": [],
      "stateMutability": "nonpayable",
      "type": "function"
    },
    {
      "inputs": [
        {
          "internalType": "uint256",
          "name": "index",
          "type": "uint256"
        }
      ],
      "name": "tokenByIndex",
      "outputs": [
        {
          "internalType": "uint256",
          "name": "",
          "type": "uint256"
        }
      ],
      "stateMutability": "view",
      "type": "function"
    },
    {
      "inputs": [
        {
          "internalType": "address",
          "name": "owner",
          "type": "address"
        },
        {
          "internalType": "uint256",
          "name": "index",
          "type": "uint256"
        }
      ],
      "name": "tokenOfOwnerByIndex",
      "outputs": [
        {
          "internalType": "uint256",
          "name": "",
          "type": "uint256"
        }
      ],
      "stateMutability": "view",
      "type": "function"
    },
    {
      "inputs": [
        {
          "internalType": "uint256",
          "name": "tokenId",
          "type": "uint256"
        }
      ],
      "name": "tokenURI",
      "outputs": [
        {
          "internalType": "string",
          "name": "",
          "type": "string"
        }
      ],
      "stateMutability": "view",
      "type": "function"
    },
    {
      "inputs": [],
      "name": "totalSupply",
      "outputs": [
        {
          "internalType": "uint256",
          "name": "",
          "type": "uint256"
        }
      ],
      "stateMutability": "view",
      "type": "function"
    },
    {
      "inputs": [
        {
          "internalType": "address",
          "name": "from",
          "type": "address"
        },
        {
          "internalType": "address",
          "name": "to",
          "type": "address"
        },
        {
          "internalType": "uint256",
          "name": "tokenId",
          "type": "uint256"
        }
      ],
      "name": "transferFrom",
      "outputs": [],
      "stateMutability": "nonpayable",
      "type": "function"
    },
    {
      "inputs": [
        {
          "internalType": "address",
          "name": "newOwner",
          "type": "address"
        }
      ],
      "name": "transferOwnership",
      "outputs": [],
      "stateMutability": "nonpayable",
      "type": "function"
    },
    {
      "inputs": [],
      "name": "withdraw",
      "outputs": [],
      "stateMutability": "payable",
      "type": "function"
    }
  ],
  "bytecode": "0x60806040526014600c55666a94d74f430000600d556000600e60006101000a81548160ff0219169083151502179055503480156200003c57600080fd5b506040518060400160405280600781526020017f526f6220426f74000000000000000000000000000000000000000000000000008152506040518060400160405280600681526020017f526f62426f7400000000000000000000000000000000000000000000000000008152508160009080519060200190620000c1929190620001d1565b508060019080519060200190620000da929190620001d1565b505050620000fd620000f16200010360201b60201c565b6200010b60201b60201c565b620002e6565b600033905090565b6000600a60009054906101000a900473ffffffffffffffffffffffffffffffffffffffff16905081600a60006101000a81548173ffffffffffffffffffffffffffffffffffffffff021916908373ffffffffffffffffffffffffffffffffffffffff1602179055508173ffffffffffffffffffffffffffffffffffffffff168173ffffffffffffffffffffffffffffffffffffffff167f8be0079c531659141344cd1fd0a4f28419497f9722a3daafe3b4186f6b6457e060405160405180910390a35050565b828054620001df9062000281565b90600052602060002090601f0160209004810192826200020357600085556200024f565b82601f106200021e57805160ff19168380011785556200024f565b828001600101855582156200024f579182015b828111156200024e57825182559160200191906001019062000231565b5b5090506200025e919062000262565b5090565b5b808211156200027d57600081600090555060010162000263565b5090565b600060028204905060018216806200029a57607f821691505b60208210811415620002b157620002b0620002b7565b5b50919050565b7f4e487b7100000000000000000000000000000000000000000000000000000000600052602260045260246000fd5b613d7f80620002f66000396000f3fe60806040526004361061019c5760003560e01c806370a08231116100ec57806398d5fdca1161008a578063c634d03211610064578063c634d03214610593578063c87b56dd146105af578063e985e9c5146105ec578063f2fde38b146106295761019c565b806398d5fdca14610516578063a22cb46514610541578063b88d4fde1461056a5761019c565b80637d8966e4116100c65780637d8966e4146104805780638da5cb5b1461049757806391b7f5ed146104c257806395d89b41146104eb5761019c565b806370a0823114610401578063715018a61461043e5780637d4cb964146104555761019c565b80632f745c59116101595780634f6ccce7116101335780634f6ccce71461033357806355f804b31461037057806356e0ec72146103995780636352211e146103c45761019c565b80632f745c59146102c35780633ccfd60b1461030057806342842e0e1461030a5761019c565b806301ffc9a7146101a157806306fdde03146101de578063081812fc14610209578063095ea7b31461024657806318160ddd1461026f57806323b872dd1461029a575b600080fd5b3480156101ad57600080fd5b506101c860048036038101906101c39190612ae3565b610652565b6040516101d59190612ffc565b60405180910390f35b3480156101ea57600080fd5b506101f36106cc565b6040516102009190613017565b60405180910390f35b34801561021557600080fd5b50610230600480360381019061022b9190612b76565b61075e565b60405161023d9190612f95565b60405180910390f35b34801561025257600080fd5b5061026d60048036038101906102689190612aa7565b6107e3565b005b34801561027b57600080fd5b506102846108fb565b60405161029191906132f9565b60405180910390f35b3480156102a657600080fd5b506102c160048036038101906102bc91906129a1565b610908565b005b3480156102cf57600080fd5b506102ea60048036038101906102e59190612aa7565b610968565b6040516102f791906132f9565b60405180910390f35b610308610a0d565b005b34801561031657600080fd5b50610331600480360381019061032c91906129a1565b610ac9565b005b34801561033f57600080fd5b5061035a60048036038101906103559190612b76565b610ae9565b60405161036791906132f9565b60405180910390f35b34801561037c57600080fd5b5061039760048036038101906103929190612b35565b610b80565b005b3480156103a557600080fd5b506103ae610c16565b6040516103bb9190612ffc565b60405180910390f35b3480156103d057600080fd5b506103eb60048036038101906103e69190612b76565b610c29565b6040516103f89190612f95565b60405180910390f35b34801561040d57600080fd5b506104286004803603810190610423919061293c565b610cdb565b60405161043591906132f9565b60405180910390f35b34801561044a57600080fd5b50610453610d93565b005b34801561046157600080fd5b5061046a610e1b565b60405161047791906132f9565b60405180910390f35b34801561048c57600080fd5b50610495610e21565b005b3480156104a357600080fd5b506104ac610ec9565b6040516104b99190612f95565b60405180910390f35b3480156104ce57600080fd5b506104e960048036038101906104e49190612b76565b610ef3565b005b3480156104f757600080fd5b50610500610f79565b60405161050d9190613017565b60405180910390f35b34801561052257600080fd5b5061052b61100b565b60405161053891906132f9565b60405180910390f35b34801561054d57600080fd5b5061056860048036038101906105639190612a6b565b611015565b005b34801561057657600080fd5b50610591600480360381019061058c91906129f0565b611196565b005b6105ad60048036038101906105a89190612b76565b6111f8565b005b3480156105bb57600080fd5b506105d660048036038101906105d19190612b76565b611381565b6040516105e39190613017565b60405180910390f35b3480156105f857600080fd5b50610613600480360381019061060e9190612965565b611428565b6040516106209190612ffc565b60405180910390f35b34801561063557600080fd5b50610650600480360381019061064b919061293c565b6114bc565b005b60007f780e9d63000000000000000000000000000000000000000000000000000000007bffffffffffffffffffffffffffffffffffffffffffffffffffffffff1916827bffffffffffffffffffffffffffffffffffffffffffffffffffffffff191614806106c557506106c4826115b4565b5b9050919050565b6060600080546106db906135a9565b80601f0160208091040260200160405190810160405280929190818152602001828054610707906135a9565b80156107545780601f1061072957610100808354040283529160200191610754565b820191906000526020600020905b81548152906001019060200180831161073757829003601f168201915b5050505050905090565b600061076982611696565b6107a8576040517f08c379a000000000000000000000000000000000000000000000000000000000815260040161079f906131b9565b60405180910390fd5b6004600083815260200190815260200160002060009054906101000a900473ffffffffffffffffffffffffffffffffffffffff169050919050565b60006107ee82610c29565b90508073ffffffffffffffffffffffffffffffffffffffff168373ffffffffffffffffffffffffffffffffffffffff16141561085f576040517f08c379a000000000000000000000000000000000000000000000000000000000815260040161085690613239565b60405180910390fd5b8073ffffffffffffffffffffffffffffffffffffffff1661087e611702565b73ffffffffffffffffffffffffffffffffffffffff1614806108ad57506108ac816108a7611702565b611428565b5b6108ec576040517f08c379a00000000000000000000000000000000000000000000000000000000081526004016108e390613139565b60405180910390fd5b6108f6838361170a565b505050565b6000600880549050905090565b610919610913611702565b826117c3565b610958576040517f08c379a000000000000000000000000000000000000000000000000000000000815260040161094f90613299565b60405180910390fd5b6109638383836118a1565b505050565b600061097383610cdb565b82106109b4576040517f08c379a00000000000000000000000000000000000000000000000000000000081526004016109ab90613039565b60405180910390fd5b600660008473ffffffffffffffffffffffffffffffffffffffff1673ffffffffffffffffffffffffffffffffffffffff168152602001908152602001600020600083815260200190815260200160002054905092915050565b610a15611702565b73ffffffffffffffffffffffffffffffffffffffff16610a33610ec9565b73ffffffffffffffffffffffffffffffffffffffff1614610a89576040517f08c379a0000000000000000000000000000000000000000000000000000000008152600401610a80906131d9565b60405180910390fd5b3373ffffffffffffffffffffffffffffffffffffffff166108fc479081150290604051600060405180830381858888f19350505050610ac757600080fd5b565b610ae483838360405180602001604052806000815250611196565b505050565b6000610af36108fb565b8210610b34576040517f08c379a0000000000000000000000000000000000000000000000000000000008152600401610b2b906132b9565b60405180910390fd5b60088281548110610b6e577f4e487b7100000000000000000000000000000000000000000000000000000000600052603260045260246000fd5b90600052602060002001549050919050565b610b88611702565b73ffffffffffffffffffffffffffffffffffffffff16610ba6610ec9565b73ffffffffffffffffffffffffffffffffffffffff1614610bfc576040517f08c379a0000000000000000000000000000000000000000000000000000000008152600401610bf3906131d9565b60405180910390fd5b80600b9080519060200190610c12929190612760565b5050565b600e60009054906101000a900460ff1681565b6000806002600084815260200190815260200160002060009054906101000a900473ffffffffffffffffffffffffffffffffffffffff169050600073ffffffffffffffffffffffffffffffffffffffff168173ffffffffffffffffffffffffffffffffffffffff161415610cd2576040517f08c379a0000000000000000000000000000000000000000000000000000000008152600401610cc990613179565b60405180910390fd5b80915050919050565b60008073ffffffffffffffffffffffffffffffffffffffff168273ffffffffffffffffffffffffffffffffffffffff161415610d4c576040517f08c379a0000000000000000000000000000000000000000000000000000000008152600401610d4390613159565b60405180910390fd5b600360008373ffffffffffffffffffffffffffffffffffffffff1673ffffffffffffffffffffffffffffffffffffffff168152602001908152602001600020549050919050565b610d9b611702565b73ffffffffffffffffffffffffffffffffffffffff16610db9610ec9565b73ffffffffffffffffffffffffffffffffffffffff1614610e0f576040517f08c379a0000000000000000000000000000000000000000000000000000000008152600401610e06906131d9565b60405180910390fd5b610e196000611afd565b565b61271081565b610e29611702565b73ffffffffffffffffffffffffffffffffffffffff16610e47610ec9565b73ffffffffffffffffffffffffffffffffffffffff1614610e9d576040517f08c379a0000000000000000000000000000000000000000000000000000000008152600401610e94906131d9565b60405180910390fd5b600e60009054906101000a900460ff1615600e60006101000a81548160ff021916908315150217905550565b6000600a60009054906101000a900473ffffffffffffffffffffffffffffffffffffffff16905090565b610efb611702565b73ffffffffffffffffffffffffffffffffffffffff16610f19610ec9565b73ffffffffffffffffffffffffffffffffffffffff1614610f6f576040517f08c379a0000000000000000000000000000000000000000000000000000000008152600401610f66906131d9565b60405180910390fd5b80600d8190555050565b606060018054610f88906135a9565b80601f0160208091040260200160405190810160405280929190818152602001828054610fb4906135a9565b80156110015780601f10610fd657610100808354040283529160200191611001565b820191906000526020600020905b815481529060010190602001808311610fe457829003601f168201915b5050505050905090565b6000600d54905090565b61101d611702565b73ffffffffffffffffffffffffffffffffffffffff168273ffffffffffffffffffffffffffffffffffffffff16141561108b576040517f08c379a0000000000000000000000000000000000000000000000000000000008152600401611082906130f9565b60405180910390fd5b8060056000611098611702565b73ffffffffffffffffffffffffffffffffffffffff1673ffffffffffffffffffffffffffffffffffffffff16815260200190815260200160002060008473ffffffffffffffffffffffffffffffffffffffff1673ffffffffffffffffffffffffffffffffffffffff16815260200190815260200160002060006101000a81548160ff0219169083151502179055508173ffffffffffffffffffffffffffffffffffffffff16611145611702565b73ffffffffffffffffffffffffffffffffffffffff167f17307eab39ab6107e8899845ad3d59bd9653f200f220920489ca2b5937696c318360405161118a9190612ffc565b60405180910390a35050565b6111a76111a1611702565b836117c3565b6111e6576040517f08c379a00000000000000000000000000000000000000000000000000000000081526004016111dd90613299565b60405180910390fd5b6111f284848484611bc3565b50505050565b60006112026108fb565b9050600e60009054906101000a900460ff16611253576040517f08c379a000000000000000000000000000000000000000000000000000000000815260040161124a906132d9565b60405180910390fd5b6001600c5461126291906133de565b82106112a3576040517f08c379a000000000000000000000000000000000000000000000000000000000815260040161129a90613259565b60405180910390fd5b61271082826112b291906133de565b106112f2576040517f08c379a00000000000000000000000000000000000000000000000000000000081526004016112e990613279565b60405180910390fd5b611307600d5483611c1f90919063ffffffff16565b341015611349576040517f08c379a0000000000000000000000000000000000000000000000000000000008152600401611340906130b9565b60405180910390fd5b60005b8281101561137c5761136933828461136491906133de565b611c35565b80806113749061360c565b91505061134c565b505050565b606061138c82611696565b6113cb576040517f08c379a00000000000000000000000000000000000000000000000000000000081526004016113c290613219565b60405180910390fd5b60006113d5611c53565b905060008151116113f55760405180602001604052806000815250611420565b806113ff84611ce5565b604051602001611410929190612f71565b6040516020818303038152906040525b915050919050565b6000600560008473ffffffffffffffffffffffffffffffffffffffff1673ffffffffffffffffffffffffffffffffffffffff16815260200190815260200160002060008373ffffffffffffffffffffffffffffffffffffffff1673ffffffffffffffffffffffffffffffffffffffff16815260200190815260200160002060009054906101000a900460ff16905092915050565b6114c4611702565b73ffffffffffffffffffffffffffffffffffffffff166114e2610ec9565b73ffffffffffffffffffffffffffffffffffffffff1614611538576040517f08c379a000000000000000000000000000000000000000000000000000000000815260040161152f906131d9565b60405180910390fd5b600073ffffffffffffffffffffffffffffffffffffffff168173ffffffffffffffffffffffffffffffffffffffff1614156115a8576040517f08c379a000000000000000000000000000000000000000000000000000000000815260040161159f90613079565b60405180910390fd5b6115b181611afd565b50565b60007f80ac58cd000000000000000000000000000000000000000000000000000000007bffffffffffffffffffffffffffffffffffffffffffffffffffffffff1916827bffffffffffffffffffffffffffffffffffffffffffffffffffffffff1916148061167f57507f5b5e139f000000000000000000000000000000000000000000000000000000007bffffffffffffffffffffffffffffffffffffffffffffffffffffffff1916827bffffffffffffffffffffffffffffffffffffffffffffffffffffffff1916145b8061168f575061168e82611e92565b5b9050919050565b60008073ffffffffffffffffffffffffffffffffffffffff166002600084815260200190815260200160002060009054906101000a900473ffffffffffffffffffffffffffffffffffffffff1673ffffffffffffffffffffffffffffffffffffffff1614159050919050565b600033905090565b816004600083815260200190815260200160002060006101000a81548173ffffffffffffffffffffffffffffffffffffffff021916908373ffffffffffffffffffffffffffffffffffffffff160217905550808273ffffffffffffffffffffffffffffffffffffffff1661177d83610c29565b73ffffffffffffffffffffffffffffffffffffffff167f8c5be1e5ebec7d5bd14f71427d1e84f3dd0314c0f7b2291e5b200ac8c7c3b92560405160405180910390a45050565b60006117ce82611696565b61180d576040517f08c379a000000000000000000000000000000000000000000000000000000000815260040161180490613119565b60405180910390fd5b600061181883610c29565b90508073ffffffffffffffffffffffffffffffffffffffff168473ffffffffffffffffffffffffffffffffffffffff16148061188757508373ffffffffffffffffffffffffffffffffffffffff1661186f8461075e565b73ffffffffffffffffffffffffffffffffffffffff16145b8061189857506118978185611428565b5b91505092915050565b8273ffffffffffffffffffffffffffffffffffffffff166118c182610c29565b73ffffffffffffffffffffffffffffffffffffffff1614611917576040517f08c379a000000000000000000000000000000000000000000000000000000000815260040161190e906131f9565b60405180910390fd5b600073ffffffffffffffffffffffffffffffffffffffff168273ffffffffffffffffffffffffffffffffffffffff161415611987576040517f08c379a000000000000000000000000000000000000000000000000000000000815260040161197e906130d9565b60405180910390fd5b611992838383611efc565b61199d60008261170a565b6001600360008573ffffffffffffffffffffffffffffffffffffffff1673ffffffffffffffffffffffffffffffffffffffff16815260200190815260200160002060008282546119ed91906134bf565b925050819055506001600360008473ffffffffffffffffffffffffffffffffffffffff1673ffffffffffffffffffffffffffffffffffffffff1681526020019081526020016000206000828254611a4491906133de565b92505081905550816002600083815260200190815260200160002060006101000a81548173ffffffffffffffffffffffffffffffffffffffff021916908373ffffffffffffffffffffffffffffffffffffffff160217905550808273ffffffffffffffffffffffffffffffffffffffff168473ffffffffffffffffffffffffffffffffffffffff167fddf252ad1be2c89b69c2b068fc378daa952ba7f163c4a11628f55a4df523b3ef60405160405180910390a4505050565b6000600a60009054906101000a900473ffffffffffffffffffffffffffffffffffffffff16905081600a60006101000a81548173ffffffffffffffffffffffffffffffffffffffff021916908373ffffffffffffffffffffffffffffffffffffffff1602179055508173ffffffffffffffffffffffffffffffffffffffff168173ffffffffffffffffffffffffffffffffffffffff167f8be0079c531659141344cd1fd0a4f28419497f9722a3daafe3b4186f6b6457e060405160405180910390a35050565b611bce8484846118a1565b611bda84848484612010565b611c19576040517f08c379a0000000000000000000000000000000000000000000000000000000008152600401611c1090613059565b60405180910390fd5b50505050565b60008183611c2d9190613465565b905092915050565b611c4f8282604051806020016040528060008152506121a7565b5050565b6060600b8054611c62906135a9565b80601f0160208091040260200160405190810160405280929190818152602001828054611c8e906135a9565b8015611cdb5780601f10611cb057610100808354040283529160200191611cdb565b820191906000526020600020905b815481529060010190602001808311611cbe57829003601f168201915b5050505050905090565b60606000821415611d2d576040518060400160405280600181526020017f30000000000000000000000000000000000000000000000000000000000000008152509050611e8d565b600082905060005b60008214611d5f578080611d489061360c565b915050600a82611d589190613434565b9150611d35565b60008167ffffffffffffffff811115611da1577f4e487b7100000000000000000000000000000000000000000000000000000000600052604160045260246000fd5b6040519080825280601f01601f191660200182016040528015611dd35781602001600182028036833780820191505090505b5090505b60008514611e8657600182611dec91906134bf565b9150600a85611dfb9190613655565b6030611e0791906133de565b60f81b818381518110611e43577f4e487b7100000000000000000000000000000000000000000000000000000000600052603260045260246000fd5b60200101907effffffffffffffffffffffffffffffffffffffffffffffffffffffffffffff1916908160001a905350600a85611e7f9190613434565b9450611dd7565b8093505050505b919050565b60007f01ffc9a7000000000000000000000000000000000000000000000000000000007bffffffffffffffffffffffffffffffffffffffffffffffffffffffff1916827bffffffffffffffffffffffffffffffffffffffffffffffffffffffff1916149050919050565b611f07838383612202565b600073ffffffffffffffffffffffffffffffffffffffff168373ffffffffffffffffffffffffffffffffffffffff161415611f4a57611f4581612207565b611f89565b8173ffffffffffffffffffffffffffffffffffffffff168373ffffffffffffffffffffffffffffffffffffffff1614611f8857611f878382612250565b5b5b600073ffffffffffffffffffffffffffffffffffffffff168273ffffffffffffffffffffffffffffffffffffffff161415611fcc57611fc7816123bd565b61200b565b8273ffffffffffffffffffffffffffffffffffffffff168273ffffffffffffffffffffffffffffffffffffffff161461200a576120098282612500565b5b5b505050565b60006120318473ffffffffffffffffffffffffffffffffffffffff1661257f565b1561219a578373ffffffffffffffffffffffffffffffffffffffff1663150b7a0261205a611702565b8786866040518563ffffffff1660e01b815260040161207c9493929190612fb0565b602060405180830381600087803b15801561209657600080fd5b505af19250505080156120c757506040513d601f19601f820116820180604052508101906120c49190612b0c565b60015b61214a573d80600081146120f7576040519150601f19603f3d011682016040523d82523d6000602084013e6120fc565b606091505b50600081511415612142576040517f08c379a000000000000000000000000000000000000000000000000000000000815260040161213990613059565b60405180910390fd5b805181602001fd5b63150b7a0260e01b7bffffffffffffffffffffffffffffffffffffffffffffffffffffffff1916817bffffffffffffffffffffffffffffffffffffffffffffffffffffffff19161491505061219f565b600190505b949350505050565b6121b18383612592565b6121be6000848484612010565b6121fd576040517f08c379a00000000000000000000000000000000000000000000000000000000081526004016121f490613059565b60405180910390fd5b505050565b505050565b6008805490506009600083815260200190815260200160002081905550600881908060018154018082558091505060019003906000526020600020016000909190919091505550565b6000600161225d84610cdb565b61226791906134bf565b905060006007600084815260200190815260200160002054905081811461234c576000600660008673ffffffffffffffffffffffffffffffffffffffff1673ffffffffffffffffffffffffffffffffffffffff168152602001908152602001600020600084815260200190815260200160002054905080600660008773ffffffffffffffffffffffffffffffffffffffff1673ffffffffffffffffffffffffffffffffffffffff168152602001908152602001600020600084815260200190815260200160002081905550816007600083815260200190815260200160002081905550505b6007600084815260200190815260200160002060009055600660008573ffffffffffffffffffffffffffffffffffffffff1673ffffffffffffffffffffffffffffffffffffffff16815260200190815260200160002060008381526020019081526020016000206000905550505050565b600060016008805490506123d191906134bf565b9050600060096000848152602001908152602001600020549050600060088381548110612427577f4e487b7100000000000000000000000000000000000000000000000000000000600052603260045260246000fd5b90600052602060002001549050806008838154811061246f577f4e487b7100000000000000000000000000000000000000000000000000000000600052603260045260246000fd5b9060005260206000200181905550816009600083815260200190815260200160002081905550600960008581526020019081526020016000206000905560088054806124e4577f4e487b7100000000000000000000000000000000000000000000000000000000600052603160045260246000fd5b6001900381819060005260206000200160009055905550505050565b600061250b83610cdb565b905081600660008573ffffffffffffffffffffffffffffffffffffffff1673ffffffffffffffffffffffffffffffffffffffff168152602001908152602001600020600083815260200190815260200160002081905550806007600084815260200190815260200160002081905550505050565b600080823b905060008111915050919050565b600073ffffffffffffffffffffffffffffffffffffffff168273ffffffffffffffffffffffffffffffffffffffff161415612602576040517f08c379a00000000000000000000000000000000000000000000000000000000081526004016125f990613199565b60405180910390fd5b61260b81611696565b1561264b576040517f08c379a000000000000000000000000000000000000000000000000000000000815260040161264290613099565b60405180910390fd5b61265760008383611efc565b6001600360008473ffffffffffffffffffffffffffffffffffffffff1673ffffffffffffffffffffffffffffffffffffffff16815260200190815260200160002060008282546126a791906133de565b92505081905550816002600083815260200190815260200160002060006101000a81548173ffffffffffffffffffffffffffffffffffffffff021916908373ffffffffffffffffffffffffffffffffffffffff160217905550808273ffffffffffffffffffffffffffffffffffffffff16600073ffffffffffffffffffffffffffffffffffffffff167fddf252ad1be2c89b69c2b068fc378daa952ba7f163c4a11628f55a4df523b3ef60405160405180910390a45050565b82805461276c906135a9565b90600052602060002090601f01602090048101928261278e57600085556127d5565b82601f106127a757805160ff19168380011785556127d5565b828001600101855582156127d5579182015b828111156127d45782518255916020019190600101906127b9565b5b5090506127e291906127e6565b5090565b5b808211156127ff5760008160009055506001016127e7565b5090565b600061281661281184613339565b613314565b90508281526020810184848401111561282e57600080fd5b612839848285613567565b509392505050565b600061285461284f8461336a565b613314565b90508281526020810184848401111561286c57600080fd5b612877848285613567565b509392505050565b60008135905061288e81613ced565b92915050565b6000813590506128a381613d04565b92915050565b6000813590506128b881613d1b565b92915050565b6000815190506128cd81613d1b565b92915050565b600082601f8301126128e457600080fd5b81356128f4848260208601612803565b91505092915050565b600082601f83011261290e57600080fd5b813561291e848260208601612841565b91505092915050565b60008135905061293681613d32565b92915050565b60006020828403121561294e57600080fd5b600061295c8482850161287f565b91505092915050565b6000806040838503121561297857600080fd5b60006129868582860161287f565b92505060206129978582860161287f565b9150509250929050565b6000806000606084860312156129b657600080fd5b60006129c48682870161287f565b93505060206129d58682870161287f565b92505060406129e686828701612927565b9150509250925092565b60008060008060808587031215612a0657600080fd5b6000612a148782880161287f565b9450506020612a258782880161287f565b9350506040612a3687828801612927565b925050606085013567ffffffffffffffff811115612a5357600080fd5b612a5f878288016128d3565b91505092959194509250565b60008060408385031215612a7e57600080fd5b6000612a8c8582860161287f565b9250506020612a9d85828601612894565b9150509250929050565b60008060408385031215612aba57600080fd5b6000612ac88582860161287f565b9250506020612ad985828601612927565b9150509250929050565b600060208284031215612af557600080fd5b6000612b03848285016128a9565b91505092915050565b600060208284031215612b1e57600080fd5b6000612b2c848285016128be565b91505092915050565b600060208284031215612b4757600080fd5b600082013567ffffffffffffffff811115612b6157600080fd5b612b6d848285016128fd565b91505092915050565b600060208284031215612b8857600080fd5b6000612b9684828501612927565b91505092915050565b612ba8816134f3565b82525050565b612bb781613505565b82525050565b6000612bc88261339b565b612bd281856133b1565b9350612be2818560208601613576565b612beb81613742565b840191505092915050565b6000612c01826133a6565b612c0b81856133c2565b9350612c1b818560208601613576565b612c2481613742565b840191505092915050565b6000612c3a826133a6565b612c4481856133d3565b9350612c54818560208601613576565b80840191505092915050565b6000612c6d602b836133c2565b9150612c7882613753565b604082019050919050565b6000612c906032836133c2565b9150612c9b826137a2565b604082019050919050565b6000612cb36026836133c2565b9150612cbe826137f1565b604082019050919050565b6000612cd6601c836133c2565b9150612ce182613840565b602082019050919050565b6000612cf9600e836133c2565b9150612d0482613869565b602082019050919050565b6000612d1c6024836133c2565b9150612d2782613892565b604082019050919050565b6000612d3f6019836133c2565b9150612d4a826138e1565b602082019050919050565b6000612d62602c836133c2565b9150612d6d8261390a565b604082019050919050565b6000612d856038836133c2565b9150612d9082613959565b604082019050919050565b6000612da8602a836133c2565b9150612db3826139a8565b604082019050919050565b6000612dcb6029836133c2565b9150612dd6826139f7565b604082019050919050565b6000612dee6020836133c2565b9150612df982613a46565b602082019050919050565b6000612e11602c836133c2565b9150612e1c82613a6f565b604082019050919050565b6000612e346020836133c2565b9150612e3f82613abe565b602082019050919050565b6000612e576029836133c2565b9150612e6282613ae7565b604082019050919050565b6000612e7a602f836133c2565b9150612e8582613b36565b604082019050919050565b6000612e9d6021836133c2565b9150612ea882613b85565b604082019050919050565b6000612ec06016836133c2565b9150612ecb82613bd4565b602082019050919050565b6000612ee36016836133c2565b9150612eee82613bfd565b602082019050919050565b6000612f066031836133c2565b9150612f1182613c26565b604082019050919050565b6000612f29602c836133c2565b9150612f3482613c75565b604082019050919050565b6000612f4c6013836133c2565b9150612f5782613cc4565b602082019050919050565b612f6b8161355d565b82525050565b6000612f7d8285612c2f565b9150612f898284612c2f565b91508190509392505050565b6000602082019050612faa6000830184612b9f565b92915050565b6000608082019050612fc56000830187612b9f565b612fd26020830186612b9f565b612fdf6040830185612f62565b8181036060830152612ff18184612bbd565b905095945050505050565b60006020820190506130116000830184612bae565b92915050565b600060208201905081810360008301526130318184612bf6565b905092915050565b6000602082019050818103600083015261305281612c60565b9050919050565b6000602082019050818103600083015261307281612c83565b9050919050565b6000602082019050818103600083015261309281612ca6565b9050919050565b600060208201905081810360008301526130b281612cc9565b9050919050565b600060208201905081810360008301526130d281612cec565b9050919050565b600060208201905081810360008301526130f281612d0f565b9050919050565b6000602082019050818103600083015261311281612d32565b9050919050565b6000602082019050818103600083015261313281612d55565b9050919050565b6000602082019050818103600083015261315281612d78565b9050919050565b6000602082019050818103600083015261317281612d9b565b9050919050565b6000602082019050818103600083015261319281612dbe565b9050919050565b600060208201905081810360008301526131b281612de1565b9050919050565b600060208201905081810360008301526131d281612e04565b9050919050565b600060208201905081810360008301526131f281612e27565b9050919050565b6000602082019050818103600083015261321281612e4a565b9050919050565b6000602082019050818103600083015261323281612e6d565b9050919050565b6000602082019050818103600083015261325281612e90565b9050919050565b6000602082019050818103600083015261327281612eb3565b9050919050565b6000602082019050818103600083015261329281612ed6565b9050919050565b600060208201905081810360008301526132b281612ef9565b9050919050565b600060208201905081810360008301526132d281612f1c565b9050919050565b600060208201905081810360008301526132f281612f3f565b9050919050565b600060208201905061330e6000830184612f62565b92915050565b600061331e61332f565b905061332a82826135db565b919050565b6000604051905090565b600067ffffffffffffffff82111561335457613353613713565b5b61335d82613742565b9050602081019050919050565b600067ffffffffffffffff82111561338557613384613713565b5b61338e82613742565b9050602081019050919050565b600081519050919050565b600081519050919050565b600082825260208201905092915050565b600082825260208201905092915050565b600081905092915050565b60006133e98261355d565b91506133f48361355d565b9250827fffffffffffffffffffffffffffffffffffffffffffffffffffffffffffffffff0382111561342957613428613686565b5b828201905092915050565b600061343f8261355d565b915061344a8361355d565b92508261345a576134596136b5565b5b828204905092915050565b60006134708261355d565b915061347b8361355d565b9250817fffffffffffffffffffffffffffffffffffffffffffffffffffffffffffffffff04831182151516156134b4576134b3613686565b5b828202905092915050565b60006134ca8261355d565b91506134d58361355d565b9250828210156134e8576134e7613686565b5b828203905092915050565b60006134fe8261353d565b9050919050565b60008115159050919050565b60007fffffffff0000000000000000000000000000000000000000000000000000000082169050919050565b600073ffffffffffffffffffffffffffffffffffffffff82169050919050565b6000819050919050565b82818337600083830152505050565b60005b83811015613594578082015181840152602081019050613579565b838111156135a3576000848401525b50505050565b600060028204905060018216806135c157607f821691505b602082108114156135d5576135d46136e4565b5b50919050565b6135e482613742565b810181811067ffffffffffffffff8211171561360357613602613713565b5b80604052505050565b60006136178261355d565b91507fffffffffffffffffffffffffffffffffffffffffffffffffffffffffffffffff82141561364a57613649613686565b5b600182019050919050565b60006136608261355d565b915061366b8361355d565b92508261367b5761367a6136b5565b5b828206905092915050565b7f4e487b7100000000000000000000000000000000000000000000000000000000600052601160045260246000fd5b7f4e487b7100000000000000000000000000000000000000000000000000000000600052601260045260246000fd5b7f4e487b7100000000000000000000000000000000000000000000000000000000600052602260045260246000fd5b7f4e487b7100000000000000000000000000000000000000000000000000000000600052604160045260246000fd5b6000601f19601f8301169050919050565b7f455243373231456e756d657261626c653a206f776e657220696e646578206f7560008201527f74206f6620626f756e6473000000000000000000000000000000000000000000602082015250565b7f4552433732313a207472616e7366657220746f206e6f6e20455243373231526560008201527f63656976657220696d706c656d656e7465720000000000000000000000000000602082015250565b7f4f776e61626c653a206e6577206f776e657220697320746865207a65726f206160008201527f6464726573730000000000000000000000000000000000000000000000000000602082015250565b7f4552433732313a20746f6b656e20616c7265616479206d696e74656400000000600082015250565b7f4e6f7420456e6f75676820455448000000000000000000000000000000000000600082015250565b7f4552433732313a207472616e7366657220746f20746865207a65726f2061646460008201527f7265737300000000000000000000000000000000000000000000000000000000602082015250565b7f4552433732313a20617070726f766520746f2063616c6c657200000000000000600082015250565b7f4552433732313a206f70657261746f7220717565727920666f72206e6f6e657860008201527f697374656e7420746f6b656e0000000000000000000000000000000000000000602082015250565b7f4552433732313a20617070726f76652063616c6c6572206973206e6f74206f7760008201527f6e6572206e6f7220617070726f76656420666f7220616c6c0000000000000000602082015250565b7f4552433732313a2062616c616e636520717565727920666f7220746865207a6560008201527f726f206164647265737300000000000000000000000000000000000000000000602082015250565b7f4552433732313a206f776e657220717565727920666f72206e6f6e657869737460008201527f656e7420746f6b656e0000000000000000000000000000000000000000000000602082015250565b7f4552433732313a206d696e7420746f20746865207a65726f2061646472657373600082015250565b7f4552433732313a20617070726f76656420717565727920666f72206e6f6e657860008201527f697374656e7420746f6b656e0000000000000000000000000000000000000000602082015250565b7f4f776e61626c653a2063616c6c6572206973206e6f7420746865206f776e6572600082015250565b7f4552433732313a207472616e73666572206f6620746f6b656e2074686174206960008201527f73206e6f74206f776e0000000000000000000000000000000000000000000000602082015250565b7f4552433732314d657461646174613a2055524920717565727920666f72206e6f60008201527f6e6578697374656e7420746f6b656e0000000000000000000000000000000000602082015250565b7f4552433732313a20617070726f76616c20746f2063757272656e74206f776e6560008201527f7200000000000000000000000000000000000000000000000000000000000000602082015250565b7f4578636565647320746f74616c206d696e7461626c6500000000000000000000600082015250565b7f45786365656473206d6178696d756d20737570706c7900000000000000000000600082015250565b7f4552433732313a207472616e736665722063616c6c6572206973206e6f74206f60008201527f776e6572206e6f7220617070726f766564000000000000000000000000000000602082015250565b7f455243373231456e756d657261626c653a20676c6f62616c20696e646578206f60008201527f7574206f6620626f756e64730000000000000000000000000000000000000000602082015250565b7f53616c65206861736e2774207374617274656400000000000000000000000000600082015250565b613cf6816134f3565b8114613d0157600080fd5b50565b613d0d81613505565b8114613d1857600080fd5b50565b613d2481613511565b8114613d2f57600080fd5b50565b613d3b8161355d565b8114613d4657600080fd5b5056fea26469706673582212203b570d40a6f11a3df2e58cb3eb510bf4b8be3bd4cea9472de4fec031952056bb64736f6c63430008040033",
  "linkReferences": {},
  "deployedLinkReferences": {}
}