{
  "_format": "hh-sol-artifact-1",
  "contractName": "RobBotStaking",
  "sourceName": "contracts/StakingRobBot.sol",
  "abi": [
    {
      "inputs": [],
      "stateMutability": "nonpayable",
      "type": "constructor"
    },
    {
      "anonymous": false,
      "inputs": [
        {
          "indexed": true,
          "internalType": "address",
          "name": "owner",
          "type": "address"
        },
        {
          "indexed": true,
          "internalType": "address",
          "name": "spender",
          "type": "address"
        },
        {
          "indexed": false,
          "internalType": "uint256",
          "name": "value",
          "type": "uint256"
        }
      ],
      "name": "Approval",
      "type": "event"
    },
    {
      "anonymous": false,
      "inputs": [
        {
          "indexed": true,
          "internalType": "address",
          "name": "previousOwner",
          "type": "address"
        },
        {
          "indexed": true,
          "internalType": "address",
          "name": "newOwner",
          "type": "address"
        }
      ],
      "name": "OwnershipTransferred",
      "type": "event"
    },
    {
      "anonymous": false,
      "inputs": [
        {
          "indexed": true,
          "internalType": "address",
          "name": "from",
          "type": "address"
        },
        {
          "indexed": true,
          "internalType": "address",
          "name": "to",
          "type": "address"
        },
        {
          "indexed": false,
          "internalType": "uint256",
          "name": "value",
          "type": "uint256"
        }
      ],
      "name": "Transfer",
      "type": "event"
    },
    {
      "inputs": [],
      "name": "RobBotAddress",
      "outputs": [
        {
          "internalType": "address",
          "name": "",
          "type": "address"
        }
      ],
      "stateMutability": "view",
      "type": "function"
    },
    {
      "inputs": [
        {
          "internalType": "address",
          "name": "owner",
          "type": "address"
        },
        {
          "internalType": "address",
          "name": "spender",
          "type": "address"
        }
      ],
      "name": "allowance",
      "outputs": [
        {
          "internalType": "uint256",
          "name": "",
          "type": "uint256"
        }
      ],
      "stateMutability": "view",
      "type": "function"
    },
    {
      "inputs": [
        {
          "internalType": "address",
          "name": "spender",
          "type": "address"
        },
        {
          "internalType": "uint256",
          "name": "amount",
          "type": "uint256"
        }
      ],
      "name": "approve",
      "outputs": [
        {
          "internalType": "bool",
          "name": "",
          "type": "bool"
        }
      ],
      "stateMutability": "nonpayable",
      "type": "function"
    },
    {
      "inputs": [
        {
          "internalType": "address",
          "name": "account",
          "type": "address"
        }
      ],
      "name": "balanceOf",
      "outputs": [
        {
          "internalType": "uint256",
          "name": "",
          "type": "uint256"
        }
      ],
      "stateMutability": "view",
      "type": "function"
    },
    {
      "inputs": [
        {
          "internalType": "uint256",
          "name": "amount",
          "type": "uint256"
        }
      ],
      "name": "burn",
      "outputs": [],
      "stateMutability": "nonpayable",
      "type": "function"
    },
    {
      "inputs": [
        {
          "internalType": "address",
          "name": "account",
          "type": "address"
        },
        {
          "internalType": "uint256",
          "name": "amount",
          "type": "uint256"
        }
      ],
      "name": "burnFrom",
      "outputs": [],
      "stateMutability": "nonpayable",
      "type": "function"
    },
    {
      "inputs": [
        {
          "internalType": "uint256",
          "name": "tokenId",
          "type": "uint256"
        }
      ],
      "name": "claimRewardById",
      "outputs": [],
      "stateMutability": "nonpayable",
      "type": "function"
    },
    {
      "inputs": [],
      "name": "decimals",
      "outputs": [
        {
          "internalType": "uint8",
          "name": "",
          "type": "uint8"
        }
      ],
      "stateMutability": "view",
      "type": "function"
    },
    {
      "inputs": [
        {
          "internalType": "address",
          "name": "spender",
          "type": "address"
        },
        {
          "internalType": "uint256",
          "name": "subtractedValue",
          "type": "uint256"
        }
      ],
      "name": "decreaseAllowance",
      "outputs": [
        {
          "internalType": "bool",
          "name": "",
          "type": "bool"
        }
      ],
      "stateMutability": "nonpayable",
      "type": "function"
    },
    {
      "inputs": [
        {
          "internalType": "address",
          "name": "staker",
          "type": "address"
        }
      ],
      "name": "getBotsStaked",
      "outputs": [
        {
          "internalType": "uint256[]",
          "name": "",
          "type": "uint256[]"
        }
      ],
      "stateMutability": "view",
      "type": "function"
    },
    {
      "inputs": [
        {
          "internalType": "uint256",
          "name": "tokenId",
          "type": "uint256"
        }
      ],
      "name": "getRewardsTokenId",
      "outputs": [
        {
          "internalType": "uint256",
          "name": "",
          "type": "uint256"
        }
      ],
      "stateMutability": "view",
      "type": "function"
    },
    {
      "inputs": [
        {
          "internalType": "address",
          "name": "spender",
          "type": "address"
        },
        {
          "internalType": "uint256",
          "name": "addedValue",
          "type": "uint256"
        }
      ],
      "name": "increaseAllowance",
      "outputs": [
        {
          "internalType": "bool",
          "name": "",
          "type": "bool"
        }
      ],
      "stateMutability": "nonpayable",
      "type": "function"
    },
    {
      "inputs": [],
      "name": "name",
      "outputs": [
        {
          "internalType": "string",
          "name": "",
          "type": "string"
        }
      ],
      "stateMutability": "view",
      "type": "function"
    },
    {
      "inputs": [],
      "name": "owner",
      "outputs": [
        {
          "internalType": "address",
          "name": "",
          "type": "address"
        }
      ],
      "stateMutability": "view",
      "type": "function"
    },
    {
      "inputs": [],
      "name": "renounceOwnership",
      "outputs": [],
      "stateMutability": "nonpayable",
      "type": "function"
    },
    {
      "inputs": [],
      "name": "rewardRate",
      "outputs": [
        {
          "internalType": "uint256",
          "name": "",
          "type": "uint256"
        }
      ],
      "stateMutability": "view",
      "type": "function"
    },
    {
      "inputs": [
        {
          "internalType": "uint256[]",
          "name": "tokenIds",
          "type": "uint256[]"
        }
      ],
      "name": "stakeRobBot",
      "outputs": [],
      "stateMutability": "nonpayable",
      "type": "function"
    },
    {
      "inputs": [],
      "name": "symbol",
      "outputs": [
        {
          "internalType": "string",
          "name": "",
          "type": "string"
        }
      ],
      "stateMutability": "view",
      "type": "function"
    },
    {
      "inputs": [],
      "name": "totalSupply",
      "outputs": [
        {
          "internalType": "uint256",
          "name": "",
          "type": "uint256"
        }
      ],
      "stateMutability": "view",
      "type": "function"
    },
    {
      "inputs": [
        {
          "internalType": "address",
          "name": "recipient",
          "type": "address"
        },
        {
          "internalType": "uint256",
          "name": "amount",
          "type": "uint256"
        }
      ],
      "name": "transfer",
      "outputs": [
        {
          "internalType": "bool",
          "name": "",
          "type": "bool"
        }
      ],
      "stateMutability": "nonpayable",
      "type": "function"
    },
    {
      "inputs": [
        {
          "internalType": "address",
          "name": "sender",
          "type": "address"
        },
        {
          "internalType": "address",
          "name": "recipient",
          "type": "address"
        },
        {
          "internalType": "uint256",
          "name": "amount",
          "type": "uint256"
        }
      ],
      "name": "transferFrom",
      "outputs": [
        {
          "internalType": "bool",
          "name": "",
          "type": "bool"
        }
      ],
      "stateMutability": "nonpayable",
      "type": "function"
    },
    {
      "inputs": [
        {
          "internalType": "address",
          "name": "newOwner",
          "type": "address"
        }
      ],
      "name": "transferOwnership",
      "outputs": [],
      "stateMutability": "nonpayable",
      "type": "function"
    },
    {
      "inputs": [
        {
          "internalType": "uint256[]",
          "name": "tokenIds",
          "type": "uint256[]"
        }
      ],
      "name": "unstakeRobBots",
      "outputs": [],
      "stateMutability": "nonpayable",
      "type": "function"
    }
  ],
  "bytecode": "0x60806040523480156200001157600080fd5b506040518060400160405280600b81526020017f526f62426f7420436869700000000000000000000000000000000000000000008152506040518060400160405280600481526020017f5242544300000000000000000000000000000000000000000000000000000000815250816003908051906020019062000096929190620001a6565b508060049080519060200190620000af929190620001a6565b505050620000d2620000c6620000d860201b60201c565b620000e060201b60201c565b620002bb565b600033905090565b6000600560009054906101000a900473ffffffffffffffffffffffffffffffffffffffff16905081600560006101000a81548173ffffffffffffffffffffffffffffffffffffffff021916908373ffffffffffffffffffffffffffffffffffffffff1602179055508173ffffffffffffffffffffffffffffffffffffffff168173ffffffffffffffffffffffffffffffffffffffff167f8be0079c531659141344cd1fd0a4f28419497f9722a3daafe3b4186f6b6457e060405160405180910390a35050565b828054620001b49062000256565b90600052602060002090601f016020900481019282620001d8576000855562000224565b82601f10620001f357805160ff191683800117855562000224565b8280016001018555821562000224579182015b828111156200022357825182559160200191906001019062000206565b5b50905062000233919062000237565b5090565b5b808211156200025257600081600090555060010162000238565b5090565b600060028204905060018216806200026f57607f821691505b602082108114156200028657620002856200028c565b5b50919050565b7f4e487b7100000000000000000000000000000000000000000000000000000000600052602260045260246000fd5b612e7980620002cb6000396000f3fe608060405234801561001057600080fd5b506004361061014d5760003560e01c806370a08231116100c357806395d89b411161007c57806395d89b41146103a0578063a457c2d7146103be578063a9059cbb146103ee578063bccfc2a71461041e578063dd62ed3e1461043a578063f2fde38b1461046a5761014d565b806370a08231146102de578063715018a61461030e57806379cc6790146103185780637b0a47ee146103345780638da5cb5b1461035257806393a0f7ab146103705761014d565b8063313ce56711610115578063313ce5671461021e578063395093511461023c5780633a670a2d1461026c57806341ffead21461028857806342966c68146102a4578063439372ff146102c05761014d565b806306fdde0314610152578063095ea7b31461017057806318160ddd146101a057806323b872dd146101be5780632d728b67146101ee575b600080fd5b61015a610486565b60405161016791906123bc565b60405180910390f35b61018a60048036038101906101859190611f3a565b610518565b60405161019791906123a1565b60405180910390f35b6101a8610536565b6040516101b591906125fe565b60405180910390f35b6101d860048036038101906101d39190611eeb565b610540565b6040516101e591906123a1565b60405180910390f35b61020860048036038101906102039190611fb7565b610638565b60405161021591906125fe565b60405180910390f35b610226610719565b6040516102339190612619565b60405180910390f35b61025660048036038101906102519190611f3a565b610722565b60405161026391906123a1565b60405180910390f35b61028660048036038101906102819190611f76565b6107ce565b005b6102a2600480360381019061029d9190611fb7565b610a3f565b005b6102be60048036038101906102b99190611fb7565b610b34565b005b6102c8610b48565b6040516102d5919061232d565b60405180910390f35b6102f860048036038101906102f39190611e5d565b610b60565b60405161030591906125fe565b60405180910390f35b610316610ba8565b005b610332600480360381019061032d9190611f3a565b610c30565b005b61033c610cab565b60405161034991906125fe565b60405180910390f35b61035a610cb5565b604051610367919061232d565b60405180910390f35b61038a60048036038101906103859190611e5d565b610cdf565b604051610397919061237f565b60405180910390f35b6103a8610d76565b6040516103b591906123bc565b60405180910390f35b6103d860048036038101906103d39190611f3a565b610e08565b6040516103e591906123a1565b60405180910390f35b61040860048036038101906104039190611f3a565b610ef3565b60405161041591906123a1565b60405180910390f35b61043860048036038101906104339190611f76565b610f11565b005b610454600480360381019061044f9190611eaf565b611242565b60405161046191906125fe565b60405180910390f35b610484600480360381019061047f9190611e5d565b6112c9565b005b60606003805461049590612870565b80601f01602080910402602001604051908101604052809291908181526020018280546104c190612870565b801561050e5780601f106104e35761010080835404028352916020019161050e565b820191906000526020600020905b8154815290600101906020018083116104f157829003601f168201915b5050505050905090565b600061052c6105256113c1565b84846113c9565b6001905092915050565b6000600254905090565b600061054d848484611594565b6000600160008673ffffffffffffffffffffffffffffffffffffffff1673ffffffffffffffffffffffffffffffffffffffff16815260200190815260200160002060006105986113c1565b73ffffffffffffffffffffffffffffffffffffffff1673ffffffffffffffffffffffffffffffffffffffff16815260200190815260200160002054905082811015610618576040517f08c379a000000000000000000000000000000000000000000000000000000000815260040161060f906124de565b60405180910390fd5b61062c856106246113c1565b8584036113c9565b60019150509392505050565b60008073ffffffffffffffffffffffffffffffffffffffff166007600084815260200190815260200160002060009054906101000a900473ffffffffffffffffffffffffffffffffffffffff1673ffffffffffffffffffffffffffffffffffffffff1614156106dc576040517f08c379a00000000000000000000000000000000000000000000000000000000081526004016106d3906124be565b60405180910390fd5b60006006600084815260200190815260200160002054426106fd919061278a565b9050651b48eb57e000816107119190612730565b915050919050565b60006012905090565b60006107c461072f6113c1565b84846001600061073d6113c1565b73ffffffffffffffffffffffffffffffffffffffff1673ffffffffffffffffffffffffffffffffffffffff16815260200190815260200160002060008873ffffffffffffffffffffffffffffffffffffffff1673ffffffffffffffffffffffffffffffffffffffff168152602001908152602001600020546107bf91906126da565b6113c9565b6001905092915050565b6000805b8251811015610a30576000838281518110610816577f4e487b7100000000000000000000000000000000000000000000000000000000600052603260045260246000fd5b602002602001015190503373ffffffffffffffffffffffffffffffffffffffff166007600083815260200190815260200160002060009054906101000a900473ffffffffffffffffffffffffffffffffffffffff1673ffffffffffffffffffffffffffffffffffffffff16146108c1576040517f08c379a00000000000000000000000000000000000000000000000000000000081526004016108b89061257e565b60405180910390fd5b73a63c6e67e1100aef623d03b8d91a1a4eb1c2efe573ffffffffffffffffffffffffffffffffffffffff166323b872dd3033846040518463ffffffff1660e01b815260040161091293929190612348565b600060405180830381600087803b15801561092c57600080fd5b505af1158015610940573d6000803e3d6000fd5b50505050651b48eb57e00060066000838152602001908152602001600020544261096a919061278a565b6109749190612730565b8361097f91906126da565b92506109c9600860003373ffffffffffffffffffffffffffffffffffffffff1673ffffffffffffffffffffffffffffffffffffffff16815260200190815260200160002082611815565b60006007600083815260200190815260200160002060006101000a81548173ffffffffffffffffffffffffffffffffffffffff021916908373ffffffffffffffffffffffffffffffffffffffff160217905550508080610a28906128d3565b9150506107d2565b50610a3b3382611981565b5050565b3373ffffffffffffffffffffffffffffffffffffffff166007600083815260200190815260200160002060009054906101000a900473ffffffffffffffffffffffffffffffffffffffff1673ffffffffffffffffffffffffffffffffffffffff1614610ae0576040517f08c379a0000000000000000000000000000000000000000000000000000000008152600401610ad79061245e565b60405180910390fd5b610b1933651b48eb57e000600660008581526020019081526020016000205442610b0a919061278a565b610b149190612730565b611981565b42600660008381526020019081526020016000208190555050565b610b45610b3f6113c1565b82611ae1565b50565b73a63c6e67e1100aef623d03b8d91a1a4eb1c2efe581565b60008060008373ffffffffffffffffffffffffffffffffffffffff1673ffffffffffffffffffffffffffffffffffffffff168152602001908152602001600020549050919050565b610bb06113c1565b73ffffffffffffffffffffffffffffffffffffffff16610bce610cb5565b73ffffffffffffffffffffffffffffffffffffffff1614610c24576040517f08c379a0000000000000000000000000000000000000000000000000000000008152600401610c1b906124fe565b60405180910390fd5b610c2e6000611cb8565b565b6000610c4383610c3e6113c1565b611242565b905081811015610c88576040517f08c379a0000000000000000000000000000000000000000000000000000000008152600401610c7f9061251e565b60405180910390fd5b610c9c83610c946113c1565b8484036113c9565b610ca68383611ae1565b505050565b651b48eb57e00081565b6000600560009054906101000a900473ffffffffffffffffffffffffffffffffffffffff16905090565b6060600860008373ffffffffffffffffffffffffffffffffffffffff1673ffffffffffffffffffffffffffffffffffffffff168152602001908152602001600020805480602002602001604051908101604052809291908181526020018280548015610d6a57602002820191906000526020600020905b815481526020019060010190808311610d56575b50505050509050919050565b606060048054610d8590612870565b80601f0160208091040260200160405190810160405280929190818152602001828054610db190612870565b8015610dfe5780601f10610dd357610100808354040283529160200191610dfe565b820191906000526020600020905b815481529060010190602001808311610de157829003601f168201915b5050505050905090565b60008060016000610e176113c1565b73ffffffffffffffffffffffffffffffffffffffff1673ffffffffffffffffffffffffffffffffffffffff16815260200190815260200160002060008573ffffffffffffffffffffffffffffffffffffffff1673ffffffffffffffffffffffffffffffffffffffff16815260200190815260200160002054905082811015610ed4576040517f08c379a0000000000000000000000000000000000000000000000000000000008152600401610ecb906125be565b60405180910390fd5b610ee8610edf6113c1565b858584036113c9565b600191505092915050565b6000610f07610f006113c1565b8484611594565b6001905092915050565b60005b815181101561123e576000828281518110610f58577f4e487b7100000000000000000000000000000000000000000000000000000000600052603260045260246000fd5b602002602001015190503373ffffffffffffffffffffffffffffffffffffffff1673a63c6e67e1100aef623d03b8d91a1a4eb1c2efe573ffffffffffffffffffffffffffffffffffffffff16636352211e836040518263ffffffff1660e01b8152600401610fc691906125fe565b60206040518083038186803b158015610fde57600080fd5b505afa158015610ff2573d6000803e3d6000fd5b505050506040513d601f19601f820116820180604052508101906110169190611e86565b73ffffffffffffffffffffffffffffffffffffffff161480156110985750600073ffffffffffffffffffffffffffffffffffffffff166007600083815260200190815260200160002060009054906101000a900473ffffffffffffffffffffffffffffffffffffffff1673ffffffffffffffffffffffffffffffffffffffff16145b6110d7576040517f08c379a00000000000000000000000000000000000000000000000000000000081526004016110ce9061249e565b60405180910390fd5b73a63c6e67e1100aef623d03b8d91a1a4eb1c2efe573ffffffffffffffffffffffffffffffffffffffff166323b872dd3330846040518463ffffffff1660e01b815260040161112893929190612348565b600060405180830381600087803b15801561114257600080fd5b505af1158015611156573d6000803e3d6000fd5b50505050600860003373ffffffffffffffffffffffffffffffffffffffff1673ffffffffffffffffffffffffffffffffffffffff168152602001908152602001600020819080600181540180825580915050600190039060005260206000200160009091909190915055426006600083815260200190815260200160002081905550336007600083815260200190815260200160002060006101000a81548173ffffffffffffffffffffffffffffffffffffffff021916908373ffffffffffffffffffffffffffffffffffffffff160217905550508080611236906128d3565b915050610f14565b5050565b6000600160008473ffffffffffffffffffffffffffffffffffffffff1673ffffffffffffffffffffffffffffffffffffffff16815260200190815260200160002060008373ffffffffffffffffffffffffffffffffffffffff1673ffffffffffffffffffffffffffffffffffffffff16815260200190815260200160002054905092915050565b6112d16113c1565b73ffffffffffffffffffffffffffffffffffffffff166112ef610cb5565b73ffffffffffffffffffffffffffffffffffffffff1614611345576040517f08c379a000000000000000000000000000000000000000000000000000000000815260040161133c906124fe565b60405180910390fd5b600073ffffffffffffffffffffffffffffffffffffffff168173ffffffffffffffffffffffffffffffffffffffff1614156113b5576040517f08c379a00000000000000000000000000000000000000000000000000000000081526004016113ac9061241e565b60405180910390fd5b6113be81611cb8565b50565b600033905090565b600073ffffffffffffffffffffffffffffffffffffffff168373ffffffffffffffffffffffffffffffffffffffff161415611439576040517f08c379a00000000000000000000000000000000000000000000000000000000081526004016114309061259e565b60405180910390fd5b600073ffffffffffffffffffffffffffffffffffffffff168273ffffffffffffffffffffffffffffffffffffffff1614156114a9576040517f08c379a00000000000000000000000000000000000000000000000000000000081526004016114a09061243e565b60405180910390fd5b80600160008573ffffffffffffffffffffffffffffffffffffffff1673ffffffffffffffffffffffffffffffffffffffff16815260200190815260200160002060008473ffffffffffffffffffffffffffffffffffffffff1673ffffffffffffffffffffffffffffffffffffffff168152602001908152602001600020819055508173ffffffffffffffffffffffffffffffffffffffff168373ffffffffffffffffffffffffffffffffffffffff167f8c5be1e5ebec7d5bd14f71427d1e84f3dd0314c0f7b2291e5b200ac8c7c3b9258360405161158791906125fe565b60405180910390a3505050565b600073ffffffffffffffffffffffffffffffffffffffff168373ffffffffffffffffffffffffffffffffffffffff161415611604576040517f08c379a00000000000000000000000000000000000000000000000000000000081526004016115fb9061255e565b60405180910390fd5b600073ffffffffffffffffffffffffffffffffffffffff168273ffffffffffffffffffffffffffffffffffffffff161415611674576040517f08c379a000000000000000000000000000000000000000000000000000000000815260040161166b906123de565b60405180910390fd5b61167f838383611d7e565b60008060008573ffffffffffffffffffffffffffffffffffffffff1673ffffffffffffffffffffffffffffffffffffffff16815260200190815260200160002054905081811015611705576040517f08c379a00000000000000000000000000000000000000000000000000000000081526004016116fc9061247e565b60405180910390fd5b8181036000808673ffffffffffffffffffffffffffffffffffffffff1673ffffffffffffffffffffffffffffffffffffffff16815260200190815260200160002081905550816000808573ffffffffffffffffffffffffffffffffffffffff1673ffffffffffffffffffffffffffffffffffffffff168152602001908152602001600020600082825461179891906126da565b925050819055508273ffffffffffffffffffffffffffffffffffffffff168473ffffffffffffffffffffffffffffffffffffffff167fddf252ad1be2c89b69c2b068fc378daa952ba7f163c4a11628f55a4df523b3ef846040516117fc91906125fe565b60405180910390a361180f848484611d83565b50505050565b60008280549050905060005b8181101561197b5782848281548110611863577f4e487b7100000000000000000000000000000000000000000000000000000000600052603260045260246000fd5b9060005260206000200154141561196857818061187f90612846565b92505081811015611916578382815481106118c3577f4e487b7100000000000000000000000000000000000000000000000000000000600052603260045260246000fd5b9060005260206000200154848281548110611907577f4e487b7100000000000000000000000000000000000000000000000000000000600052603260045260246000fd5b90600052602060002001819055505b8380548061194d577f4e487b7100000000000000000000000000000000000000000000000000000000600052603160045260246000fd5b6001900381819060005260206000200160009055905561197b565b8080611973906128d3565b915050611821565b50505050565b600073ffffffffffffffffffffffffffffffffffffffff168273ffffffffffffffffffffffffffffffffffffffff1614156119f1576040517f08c379a00000000000000000000000000000000000000000000000000000000081526004016119e8906125de565b60405180910390fd5b6119fd60008383611d7e565b8060026000828254611a0f91906126da565b92505081905550806000808473ffffffffffffffffffffffffffffffffffffffff1673ffffffffffffffffffffffffffffffffffffffff1681526020019081526020016000206000828254611a6491906126da565b925050819055508173ffffffffffffffffffffffffffffffffffffffff16600073ffffffffffffffffffffffffffffffffffffffff167fddf252ad1be2c89b69c2b068fc378daa952ba7f163c4a11628f55a4df523b3ef83604051611ac991906125fe565b60405180910390a3611add60008383611d83565b5050565b600073ffffffffffffffffffffffffffffffffffffffff168273ffffffffffffffffffffffffffffffffffffffff161415611b51576040517f08c379a0000000000000000000000000000000000000000000000000000000008152600401611b489061253e565b60405180910390fd5b611b5d82600083611d7e565b60008060008473ffffffffffffffffffffffffffffffffffffffff1673ffffffffffffffffffffffffffffffffffffffff16815260200190815260200160002054905081811015611be3576040517f08c379a0000000000000000000000000000000000000000000000000000000008152600401611bda906123fe565b60405180910390fd5b8181036000808573ffffffffffffffffffffffffffffffffffffffff1673ffffffffffffffffffffffffffffffffffffffff168152602001908152602001600020819055508160026000828254611c3a919061278a565b92505081905550600073ffffffffffffffffffffffffffffffffffffffff168373ffffffffffffffffffffffffffffffffffffffff167fddf252ad1be2c89b69c2b068fc378daa952ba7f163c4a11628f55a4df523b3ef84604051611c9f91906125fe565b60405180910390a3611cb383600084611d83565b505050565b6000600560009054906101000a900473ffffffffffffffffffffffffffffffffffffffff16905081600560006101000a81548173ffffffffffffffffffffffffffffffffffffffff021916908373ffffffffffffffffffffffffffffffffffffffff1602179055508173ffffffffffffffffffffffffffffffffffffffff168173ffffffffffffffffffffffffffffffffffffffff167f8be0079c531659141344cd1fd0a4f28419497f9722a3daafe3b4186f6b6457e060405160405180910390a35050565b505050565b505050565b6000611d9b611d9684612659565b612634565b90508083825260208201905082856020860282011115611dba57600080fd5b60005b85811015611dea5781611dd08882611e48565b845260208401935060208301925050600181019050611dbd565b5050509392505050565b600081359050611e0381612e15565b92915050565b600081519050611e1881612e15565b92915050565b600082601f830112611e2f57600080fd5b8135611e3f848260208601611d88565b91505092915050565b600081359050611e5781612e2c565b92915050565b600060208284031215611e6f57600080fd5b6000611e7d84828501611df4565b91505092915050565b600060208284031215611e9857600080fd5b6000611ea684828501611e09565b91505092915050565b60008060408385031215611ec257600080fd5b6000611ed085828601611df4565b9250506020611ee185828601611df4565b9150509250929050565b600080600060608486031215611f0057600080fd5b6000611f0e86828701611df4565b9350506020611f1f86828701611df4565b9250506040611f3086828701611e48565b9150509250925092565b60008060408385031215611f4d57600080fd5b6000611f5b85828601611df4565b9250506020611f6c85828601611e48565b9150509250929050565b600060208284031215611f8857600080fd5b600082013567ffffffffffffffff811115611fa257600080fd5b611fae84828501611e1e565b91505092915050565b600060208284031215611fc957600080fd5b6000611fd784828501611e48565b91505092915050565b6000611fec8383612300565b60208301905092915050565b612001816127be565b82525050565b600061201282612695565b61201c81856126b8565b935061202783612685565b8060005b8381101561205857815161203f8882611fe0565b975061204a836126ab565b92505060018101905061202b565b5085935050505092915050565b61206e816127d0565b82525050565b600061207f826126a0565b61208981856126c9565b9350612099818560208601612813565b6120a2816129a9565b840191505092915050565b60006120ba6023836126c9565b91506120c5826129ba565b604082019050919050565b60006120dd6022836126c9565b91506120e882612a09565b604082019050919050565b60006121006026836126c9565b915061210b82612a58565b604082019050919050565b60006121236022836126c9565b915061212e82612aa7565b604082019050919050565b60006121466011836126c9565b915061215182612af6565b602082019050919050565b60006121696026836126c9565b915061217482612b1f565b604082019050919050565b600061218c6012836126c9565b915061219782612b6e565b602082019050919050565b60006121af6010836126c9565b91506121ba82612b97565b602082019050919050565b60006121d26028836126c9565b91506121dd82612bc0565b604082019050919050565b60006121f56020836126c9565b915061220082612c0f565b602082019050919050565b60006122186024836126c9565b915061222382612c38565b604082019050919050565b600061223b6021836126c9565b915061224682612c87565b604082019050919050565b600061225e6025836126c9565b915061226982612cd6565b604082019050919050565b60006122816013836126c9565b915061228c82612d25565b602082019050919050565b60006122a46024836126c9565b91506122af82612d4e565b604082019050919050565b60006122c76025836126c9565b91506122d282612d9d565b604082019050919050565b60006122ea601f836126c9565b91506122f582612dec565b602082019050919050565b612309816127fc565b82525050565b612318816127fc565b82525050565b61232781612806565b82525050565b60006020820190506123426000830184611ff8565b92915050565b600060608201905061235d6000830186611ff8565b61236a6020830185611ff8565b612377604083018461230f565b949350505050565b600060208201905081810360008301526123998184612007565b905092915050565b60006020820190506123b66000830184612065565b92915050565b600060208201905081810360008301526123d68184612074565b905092915050565b600060208201905081810360008301526123f7816120ad565b9050919050565b60006020820190508181036000830152612417816120d0565b9050919050565b60006020820190508181036000830152612437816120f3565b9050919050565b6000602082019050818103600083015261245781612116565b9050919050565b6000602082019050818103600083015261247781612139565b9050919050565b600060208201905081810360008301526124978161215c565b9050919050565b600060208201905081810360008301526124b78161217f565b9050919050565b600060208201905081810360008301526124d7816121a2565b9050919050565b600060208201905081810360008301526124f7816121c5565b9050919050565b60006020820190508181036000830152612517816121e8565b9050919050565b600060208201905081810360008301526125378161220b565b9050919050565b600060208201905081810360008301526125578161222e565b9050919050565b6000602082019050818103600083015261257781612251565b9050919050565b6000602082019050818103600083015261259781612274565b9050919050565b600060208201905081810360008301526125b781612297565b9050919050565b600060208201905081810360008301526125d7816122ba565b9050919050565b600060208201905081810360008301526125f7816122dd565b9050919050565b6000602082019050612613600083018461230f565b92915050565b600060208201905061262e600083018461231e565b92915050565b600061263e61264f565b905061264a82826128a2565b919050565b6000604051905090565b600067ffffffffffffffff8211156126745761267361297a565b5b602082029050602081019050919050565b6000819050602082019050919050565b600081519050919050565b600081519050919050565b6000602082019050919050565b600082825260208201905092915050565b600082825260208201905092915050565b60006126e5826127fc565b91506126f0836127fc565b9250827fffffffffffffffffffffffffffffffffffffffffffffffffffffffffffffffff038211156127255761272461291c565b5b828201905092915050565b600061273b826127fc565b9150612746836127fc565b9250817fffffffffffffffffffffffffffffffffffffffffffffffffffffffffffffffff048311821515161561277f5761277e61291c565b5b828202905092915050565b6000612795826127fc565b91506127a0836127fc565b9250828210156127b3576127b261291c565b5b828203905092915050565b60006127c9826127dc565b9050919050565b60008115159050919050565b600073ffffffffffffffffffffffffffffffffffffffff82169050919050565b6000819050919050565b600060ff82169050919050565b60005b83811015612831578082015181840152602081019050612816565b83811115612840576000848401525b50505050565b6000612851826127fc565b915060008214156128655761286461291c565b5b600182039050919050565b6000600282049050600182168061288857607f821691505b6020821081141561289c5761289b61294b565b5b50919050565b6128ab826129a9565b810181811067ffffffffffffffff821117156128ca576128c961297a565b5b80604052505050565b60006128de826127fc565b91507fffffffffffffffffffffffffffffffffffffffffffffffffffffffffffffffff8214156129115761291061291c565b5b600182019050919050565b7f4e487b7100000000000000000000000000000000000000000000000000000000600052601160045260246000fd5b7f4e487b7100000000000000000000000000000000000000000000000000000000600052602260045260246000fd5b7f4e487b7100000000000000000000000000000000000000000000000000000000600052604160045260246000fd5b6000601f19601f8301169050919050565b7f45524332303a207472616e7366657220746f20746865207a65726f206164647260008201527f6573730000000000000000000000000000000000000000000000000000000000602082015250565b7f45524332303a206275726e20616d6f756e7420657863656564732062616c616e60008201527f6365000000000000000000000000000000000000000000000000000000000000602082015250565b7f4f776e61626c653a206e6577206f776e657220697320746865207a65726f206160008201527f6464726573730000000000000000000000000000000000000000000000000000602082015250565b7f45524332303a20617070726f766520746f20746865207a65726f20616464726560008201527f7373000000000000000000000000000000000000000000000000000000000000602082015250565b7f4e4f545f4255524945445f42595f594f55000000000000000000000000000000600082015250565b7f45524332303a207472616e7366657220616d6f756e742065786365656473206260008201527f616c616e63650000000000000000000000000000000000000000000000000000602082015250565b7f544f4b454e5f49535f4e4f545f594f5552530000000000000000000000000000600082015250565b7f544f4b454e5f4e4f545f42555249454400000000000000000000000000000000600082015250565b7f45524332303a207472616e7366657220616d6f756e742065786365656473206160008201527f6c6c6f77616e6365000000000000000000000000000000000000000000000000602082015250565b7f4f776e61626c653a2063616c6c6572206973206e6f7420746865206f776e6572600082015250565b7f45524332303a206275726e20616d6f756e74206578636565647320616c6c6f7760008201527f616e636500000000000000000000000000000000000000000000000000000000602082015250565b7f45524332303a206275726e2066726f6d20746865207a65726f2061646472657360008201527f7300000000000000000000000000000000000000000000000000000000000000602082015250565b7f45524332303a207472616e736665722066726f6d20746865207a65726f20616460008201527f6472657373000000000000000000000000000000000000000000000000000000602082015250565b7f4e4f545f4f524947494e414c5f42555249455200000000000000000000000000600082015250565b7f45524332303a20617070726f76652066726f6d20746865207a65726f2061646460008201527f7265737300000000000000000000000000000000000000000000000000000000602082015250565b7f45524332303a2064656372656173656420616c6c6f77616e63652062656c6f7760008201527f207a65726f000000000000000000000000000000000000000000000000000000602082015250565b7f45524332303a206d696e7420746f20746865207a65726f206164647265737300600082015250565b612e1e816127be565b8114612e2957600080fd5b50565b612e35816127fc565b8114612e4057600080fd5b5056fea264697066735822122029b3200b91b7f47178b717d86918d6e6d393b9582e83f3f08ba7f0d69788145764736f6c63430008040033",
  "linkReferences": {},
  "deployedLinkReferences": {}
}